{
  "contractName": "Voting",
  "abi": [
    {
      "inputs": [],
      "stateMutability": "nonpayable",
      "type": "constructor"
    },
    {
      "inputs": [
        {
          "internalType": "uint256",
          "name": "",
          "type": "uint256"
        }
      ],
      "name": "candidates",
      "outputs": [
        {
          "internalType": "uint256",
          "name": "id",
          "type": "uint256"
        },
        {
          "internalType": "string",
          "name": "name",
          "type": "string"
        },
        {
          "internalType": "uint256",
          "name": "voteCount",
          "type": "uint256"
        }
      ],
      "stateMutability": "view",
      "type": "function",
      "constant": true
    },
    {
      "inputs": [],
      "name": "candidatesCount",
      "outputs": [
        {
          "internalType": "uint256",
          "name": "",
          "type": "uint256"
        }
      ],
      "stateMutability": "view",
      "type": "function",
      "constant": true
    },
    {
      "inputs": [
        {
          "internalType": "address",
          "name": "",
          "type": "address"
        }
      ],
      "name": "voteflag",
      "outputs": [
        {
          "internalType": "bool",
          "name": "",
          "type": "bool"
        }
      ],
      "stateMutability": "view",
      "type": "function",
      "constant": true
    },
    {
      "inputs": [
        {
          "internalType": "uint256",
          "name": "_id",
          "type": "uint256"
        }
      ],
      "name": "vote",
      "outputs": [],
      "stateMutability": "nonpayable",
      "type": "function"
    }
  ],
  "bytecode": "0x608060405234801561001057600080fd5b506100556040518060400160405280600581526020017f416c69636500000000000000000000000000000000000000000000000000000081525061009e60201b60201c565b6100996040518060400160405280600381526020017f426f62000000000000000000000000000000000000000000000000000000000081525061009e60201b60201c565b6102a4565b6000808154809291906100b0906101fa565b9190505550604051806060016040528060005481526020018281526020016000815250600160008054815260200190815260200160002060008201518160000155602082015181600101908051906020019061010d92919061011e565b506040820151816002015590505050565b82805461012a90610272565b90600052602060002090601f01602090048101928261014c5760008555610193565b82601f1061016557805160ff1916838001178555610193565b82800160010185558215610193579182015b82811115610192578251825591602001919060010190610177565b5b5090506101a091906101a4565b5090565b5b808211156101bd5760008160009055506001016101a5565b5090565b7f4e487b7100000000000000000000000000000000000000000000000000000000600052601160045260246000fd5b6000819050919050565b6000610205826101f0565b91507fffffffffffffffffffffffffffffffffffffffffffffffffffffffffffffffff821415610238576102376101c1565b5b600182019050919050565b7f4e487b7100000000000000000000000000000000000000000000000000000000600052602260045260246000fd5b6000600282049050600182168061028a57607f821691505b6020821081141561029e5761029d610243565b5b50919050565b6105f7806102b36000396000f3fe608060405234801561001057600080fd5b506004361061004c5760003560e01c80630121b93f14610051578063090035cd1461006d5780632d35a8a21461009d5780633477ee2e146100bb575b600080fd5b61006b600480360381019061006691906102f9565b6100ed565b005b61008760048036038101906100829190610384565b6101e6565b60405161009491906103cc565b60405180910390f35b6100a5610206565b6040516100b291906103f6565b60405180910390f35b6100d560048036038101906100d091906102f9565b61020c565b6040516100e4939291906104aa565b60405180910390f35b600260003373ffffffffffffffffffffffffffffffffffffffff1673ffffffffffffffffffffffffffffffffffffffff16815260200190815260200160002060009054906101000a900460ff161561014457600080fd5b60008111801561015657506000548111155b61015f57600080fd5b6001600260003373ffffffffffffffffffffffffffffffffffffffff1673ffffffffffffffffffffffffffffffffffffffff16815260200190815260200160002060006101000a81548160ff0219169083151502179055506001600082815260200190815260200160002060020160008154809291906101de90610517565b919050555050565b60026020528060005260406000206000915054906101000a900460ff1681565b60005481565b60016020528060005260406000206000915090508060000154908060010180546102359061058f565b80601f01602080910402602001604051908101604052809291908181526020018280546102619061058f565b80156102ae5780601f10610283576101008083540402835291602001916102ae565b820191906000526020600020905b81548152906001019060200180831161029157829003601f168201915b5050505050908060020154905083565b600080fd5b6000819050919050565b6102d6816102c3565b81146102e157600080fd5b50565b6000813590506102f3816102cd565b92915050565b60006020828403121561030f5761030e6102be565b5b600061031d848285016102e4565b91505092915050565b600073ffffffffffffffffffffffffffffffffffffffff82169050919050565b600061035182610326565b9050919050565b61036181610346565b811461036c57600080fd5b50565b60008135905061037e81610358565b92915050565b60006020828403121561039a576103996102be565b5b60006103a88482850161036f565b91505092915050565b60008115159050919050565b6103c6816103b1565b82525050565b60006020820190506103e160008301846103bd565b92915050565b6103f0816102c3565b82525050565b600060208201905061040b60008301846103e7565b92915050565b600081519050919050565b600082825260208201905092915050565b60005b8381101561044b578082015181840152602081019050610430565b8381111561045a576000848401525b50505050565b6000601f19601f8301169050919050565b600061047c82610411565b610486818561041c565b935061049681856020860161042d565b61049f81610460565b840191505092915050565b60006060820190506104bf60008301866103e7565b81810360208301526104d18185610471565b90506104e060408301846103e7565b949350505050565b7f4e487b7100000000000000000000000000000000000000000000000000000000600052601160045260246000fd5b6000610522826102c3565b91507fffffffffffffffffffffffffffffffffffffffffffffffffffffffffffffffff821415610555576105546104e8565b5b600182019050919050565b7f4e487b7100000000000000000000000000000000000000000000000000000000600052602260045260246000fd5b600060028204905060018216806105a757607f821691505b602082108114156105bb576105ba610560565b5b5091905056fea2646970667358221220b29f84fb979d4eedbe3af52525cdacd24accfd8b9bbe0337e5a1f5a1abdbdbbe64736f6c63430008090033",
  "immutableReferences": {},
  "source": "pragma solidity ^0.8.9;\r\n\r\ncontract Voting{\r\n    \r\n    struct Candidate{\r\n        uint id;\r\n        string name;\r\n        uint voteCount;\r\n    }\r\n\r\n    uint public candidatesCount;\r\n\r\n    mapping(uint => Candidate) public candidates;\r\n    mapping(address => bool) public voteflag;\r\n    //event votingupdate(uint  id , string name , uint vote);\r\n\r\n    constructor() {\r\n        addCandidate(\"Alice\");\r\n        addCandidate(\"Bob\");\r\n    }\r\n\r\n    function addCandidate(string memory name) private {\r\n       candidatesCount++;\r\n       candidates[candidatesCount]= Candidate(candidatesCount,name,0); \r\n    }\r\n\r\n    function vote(uint _id) public {\r\n       require(!voteflag[msg.sender]);\r\n       require(_id > 0 && _id <= candidatesCount );\r\n\r\n       voteflag[msg.sender]=true;\r\n       candidates[ _id ].voteCount ++;\r\n       //emit votingupdate(_id,candidates[_id].name,candidates[_id].voteCount);\r\n\r\n    } \r\n}",
  "sourcePath": "C:\\Users\\91831\\Desktop\\Election\\contracts\\Voting.sol",
  "compiler": {
    "name": "solc",
    "version": "0.8.9+commit.e5eed63a.Emscripten.clang"
  },
  "schemaVersion": "3.4.3",
  "updatedAt": "2021-12-02T21:36:47.869Z",
  "networkType": "ethereum",
  "devdoc": {
    "kind": "dev",
    "methods": {},
    "version": 1
  },
  "userdoc": {
    "kind": "user",
    "methods": {},
    "version": 1
  }
}