{
  "contractName": "Voting",
  "abi": [
    {
      "inputs": [],
      "stateMutability": "nonpayable",
      "type": "constructor"
    },
    {
      "anonymous": false,
      "inputs": [
        {
          "indexed": false,
          "internalType": "uint256",
          "name": "id",
          "type": "uint256"
        },
        {
          "indexed": false,
          "internalType": "string",
          "name": "name",
          "type": "string"
        },
        {
          "indexed": false,
          "internalType": "uint256",
          "name": "vote",
          "type": "uint256"
        }
      ],
      "name": "votingupdate",
      "type": "event"
    },
    {
      "inputs": [
        {
          "internalType": "uint256",
          "name": "",
          "type": "uint256"
        }
      ],
      "name": "candidates",
      "outputs": [
        {
          "internalType": "uint256",
          "name": "id",
          "type": "uint256"
        },
        {
          "internalType": "string",
          "name": "name",
          "type": "string"
        },
        {
          "internalType": "uint256",
          "name": "voteCount",
          "type": "uint256"
        }
      ],
      "stateMutability": "view",
      "type": "function",
      "constant": true
    },
    {
      "inputs": [],
      "name": "candidatesCount",
      "outputs": [
        {
          "internalType": "uint256",
          "name": "",
          "type": "uint256"
        }
      ],
      "stateMutability": "view",
      "type": "function",
      "constant": true
    },
    {
      "inputs": [
        {
          "internalType": "address",
          "name": "",
          "type": "address"
        }
      ],
      "name": "voteflag",
      "outputs": [
        {
          "internalType": "bool",
          "name": "",
          "type": "bool"
        }
      ],
      "stateMutability": "view",
      "type": "function",
      "constant": true
    },
    {
      "inputs": [
        {
          "internalType": "uint256",
          "name": "_id",
          "type": "uint256"
        }
      ],
      "name": "vote",
      "outputs": [],
      "stateMutability": "nonpayable",
      "type": "function"
    }
  ],
  "bytecode": "0x608060405234801561001057600080fd5b506100556040518060400160405280600581526020017f416c69636500000000000000000000000000000000000000000000000000000081525061009e60201b60201c565b6100996040518060400160405280600381526020017f426f62000000000000000000000000000000000000000000000000000000000081525061009e60201b60201c565b6102a4565b6000808154809291906100b0906101fa565b9190505550604051806060016040528060005481526020018281526020016000815250600160008054815260200190815260200160002060008201518160000155602082015181600101908051906020019061010d92919061011e565b506040820151816002015590505050565b82805461012a90610272565b90600052602060002090601f01602090048101928261014c5760008555610193565b82601f1061016557805160ff1916838001178555610193565b82800160010185558215610193579182015b82811115610192578251825591602001919060010190610177565b5b5090506101a091906101a4565b5090565b5b808211156101bd5760008160009055506001016101a5565b5090565b7f4e487b7100000000000000000000000000000000000000000000000000000000600052601160045260246000fd5b6000819050919050565b6000610205826101f0565b91507fffffffffffffffffffffffffffffffffffffffffffffffffffffffffffffffff821415610238576102376101c1565b5b600182019050919050565b7f4e487b7100000000000000000000000000000000000000000000000000000000600052602260045260246000fd5b6000600282049050600182168061028a57607f821691505b6020821081141561029e5761029d610243565b5b50919050565b61073e806102b36000396000f3fe608060405234801561001057600080fd5b506004361061004c5760003560e01c80630121b93f14610051578063090035cd1461006d5780632d35a8a21461009d5780633477ee2e146100bb575b600080fd5b61006b60048036038101906100669190610360565b6100ed565b005b610087600480360381019061008291906103eb565b61024d565b6040516100949190610433565b60405180910390f35b6100a561026d565b6040516100b2919061045d565b60405180910390f35b6100d560048036038101906100d09190610360565b610273565b6040516100e493929190610511565b60405180910390f35b600260003373ffffffffffffffffffffffffffffffffffffffff1673ffffffffffffffffffffffffffffffffffffffff16815260200190815260200160002060009054906101000a900460ff161561014457600080fd5b60008111801561015657506000548111155b61015f57600080fd5b6001600260003373ffffffffffffffffffffffffffffffffffffffff1673ffffffffffffffffffffffffffffffffffffffff16815260200190815260200160002060006101000a81548160ff021916908315150217905550600180600083815260200190815260200160002060020160008282546101dd919061057e565b925050819055507f045b287625cacd36420a502d64bb99165803f7623867f9e1e759cedb9e7215e381600160008481526020019081526020016000206001016001600085815260200190815260200160002060020154604051610242939291906106ca565b60405180910390a150565b60026020528060005260406000206000915054906101000a900460ff1681565b60005481565b600160205280600052604060002060009150905080600001549080600101805461029c90610603565b80601f01602080910402602001604051908101604052809291908181526020018280546102c890610603565b80156103155780601f106102ea57610100808354040283529160200191610315565b820191906000526020600020905b8154815290600101906020018083116102f857829003601f168201915b5050505050908060020154905083565b600080fd5b6000819050919050565b61033d8161032a565b811461034857600080fd5b50565b60008135905061035a81610334565b92915050565b60006020828403121561037657610375610325565b5b60006103848482850161034b565b91505092915050565b600073ffffffffffffffffffffffffffffffffffffffff82169050919050565b60006103b88261038d565b9050919050565b6103c8816103ad565b81146103d357600080fd5b50565b6000813590506103e5816103bf565b92915050565b60006020828403121561040157610400610325565b5b600061040f848285016103d6565b91505092915050565b60008115159050919050565b61042d81610418565b82525050565b60006020820190506104486000830184610424565b92915050565b6104578161032a565b82525050565b6000602082019050610472600083018461044e565b92915050565b600081519050919050565b600082825260208201905092915050565b60005b838110156104b2578082015181840152602081019050610497565b838111156104c1576000848401525b50505050565b6000601f19601f8301169050919050565b60006104e382610478565b6104ed8185610483565b93506104fd818560208601610494565b610506816104c7565b840191505092915050565b6000606082019050610526600083018661044e565b818103602083015261053881856104d8565b9050610547604083018461044e565b949350505050565b7f4e487b7100000000000000000000000000000000000000000000000000000000600052601160045260246000fd5b60006105898261032a565b91506105948361032a565b9250827fffffffffffffffffffffffffffffffffffffffffffffffffffffffffffffffff038211156105c9576105c861054f565b5b828201905092915050565b7f4e487b7100000000000000000000000000000000000000000000000000000000600052602260045260246000fd5b6000600282049050600182168061061b57607f821691505b6020821081141561062f5761062e6105d4565b5b50919050565b60008190508160005260206000209050919050565b6000815461065781610603565b6106618186610483565b9450600182166000811461067c576001811461068e576106c1565b60ff19831686526020860193506106c1565b61069785610635565b60005b838110156106b95781548189015260018201915060208101905061069a565b808801955050505b50505092915050565b60006060820190506106df600083018661044e565b81810360208301526106f1818561064a565b9050610700604083018461044e565b94935050505056fea26469706673582212206aab356eee56e579ebc50090efbcc1d692127bab48cae938c772570ce77aaeaa64736f6c63430008090033",
  "immutableReferences": {},
  "source": "pragma solidity ^0.8.9;\r\n\r\ncontract Voting{\r\n    \r\n    struct Candidate{\r\n        uint id;\r\n        string name;\r\n        uint voteCount;\r\n    }\r\n\r\n    uint public candidatesCount;\r\n\r\n    mapping(uint => Candidate) public candidates;\r\n    mapping(address => bool) public voteflag;\r\n    event votingupdate(uint  id , string name , uint vote);\r\n\r\n    constructor() {\r\n        addCandidate(\"Alice\");\r\n        addCandidate(\"Bob\");\r\n    }\r\n\r\n    function addCandidate(string memory name) private {\r\n       candidatesCount++;\r\n       candidates[candidatesCount]= Candidate(candidatesCount,name,0); \r\n    }\r\n\r\n    function vote(uint _id) public {\r\n       require(!voteflag[msg.sender]);\r\n       require(_id > 0 && _id <= candidatesCount );\r\n\r\n       voteflag[msg.sender]=true;\r\n       candidates[_id].voteCount+=1;\r\n       emit votingupdate(_id,candidates[_id].name,candidates[_id].voteCount);\r\n\r\n    } \r\n}",
  "sourcePath": "C:\\Users\\91831\\Desktop\\Election\\contracts\\Voting.sol",
  "compiler": {
    "name": "solc",
    "version": "0.8.9+commit.e5eed63a.Emscripten.clang"
  },
  "schemaVersion": "3.4.3",
  "updatedAt": "2021-12-01T19:53:19.453Z",
  "networkType": "ethereum",
  "devdoc": {
    "kind": "dev",
    "methods": {},
    "version": 1
  },
  "userdoc": {
    "kind": "user",
    "methods": {},
    "version": 1
  }
}